:100000000C946A020C9487020C9487020C94870269
:100010000C9487020C9487020C9487020C9487023C
:100020000C9487020C9487020C9487020C9467044A
:100030000C9487020C9487020C9487020C9487021C
:100040000C9487020C9487020C9487020C9487020C
:100050000C9487024750494220746F205553422028
:10006000636F6E7665727465722076340D0A0D0AC0
:100070000000000000000000000000000000000080
:100080000000000000000000000000000000000070
:10009000000000005472616E736D697420636F6DAF
:1000A0006D616E64732C204F4B2F54494D454F5555
:1000B000542F4552524F520D0A000000000000001C
:1000C0000000000000000000000000000000000030
:1000D0000000000020203C443E2044617461202840
:1000E00041544E2066616C7365292C203C4D3E20A6
:1000F0004461746120776974686F757420454F4955
:100100000D0A0000000000000000000000000000D8
:100110000000000020203C433E20436F6D6D616E67
:1001200064202841544E2074727565290D0A000020
:1001300000000000000000000000000000000000BF
:1001400000000000000000000000000000000000AF
:100150000000000020203C543E2048657820747246
:10016000616E736D697420283043202D20636F6D9C
:100170006D616E642C203044202D206461746129EF
:100180000D0A000000000000000000000000000058
:10019000000000005265636569766520636F6D6DD0
:1001A000616E647320287265636569766573207576
:1001B0006E74696C20454F492C6D6178203132375F
:1001C000206279746573290D0A00000000000000A8
:1001D0000000000020203C583E2041534349492C58
:1001E000203C7061796C6F61643E206F72205449CD
:1001F0004D454F55540D0A0000000000000000005E
:1002000000000000000000000000000000000000EE
:100210000000000020203C593E2042494E415259E6
:100220002C203C6C656E6774683E3C7061796C6F25
:1002300061643E0D0A0000000000000000000000A4
:1002400000000000000000000000000000000000AE
:100250000000000020203C5A3E204845582C203CFD
:100260006C656E6774683E3C7061796C6F61643E6A
:100270000D0A000000000000000000000000000067
:10028000000000000000000000000000000000006E
:100290000000000020203C503E20436F6E74696EC9
:1002A0006F757320726561642028706C6F7474655B
:1002B00072206D6F6465290D0A00000000000000C7
:1002C000000000000000000000000000000000002E
:1002D0000000000047656E6572616C20636F6D6D94
:1002E000616E64730D0A0000000000000000000051
:1002F00000000000000000000000000000000000FE
:1003000000000000000000000000000000000000ED
:100310000000000020203C413E205365742F67659B
:100320007420636F6E7665727465722074616C6B95
:1003300020616464726573730D0A000000000000A0
:1003400000000000000000000000000000000000AD
:100350000000000020203C533E2047657420524599
:10036000512F5352512F4C495354454E20737461B1
:1003700074652028312069662074727565290D0A1C
:10038000000000000000000000000000000000006D
:100390000000000020203C523E205365742052454E
:1003A0004D4F5445206D6F6465202852454E207492
:1003B000727565290D0A00000000000000000000B1
:1003C000000000000000000000000000000000002D
:1003D0000000000020203C4C3E20536574204C4F10
:1003E00043414C206D6F6465202852454E20666164
:1003F0006C7365290D0A0000000000000000000079
:1004000000000000000000000000000000000000EC
:100410000000000020203C493E2047656E65726167
:100420007465204946432070756C73650D0A0000A1
:1004300000000000000000000000000000000000BC
:1004400000000000000000000000000000000000AC
:100450000000000020203C453E204765742F736556
:1004600074206563686F206F6E284531292F6F6691
:1004700066284530290D0A00000000000000000039
:10048000000000000000000000000000000000006C
:100490000000000020203C483E20436F6D6D616EDF
:1004A000647320686973746F72790D0A000000002C
:1004B000000000000000000000000000000000003C
:1004C000000000000000000000000000000000002C
:1004D0000000000011241FBECFE5D8E0DEBFCDBF75
:1004E00010E0A0E6B0E0E6E6F5E202C005900D926D
:1004F000AA3BB107D9F715E0AAEBB0E001C01D9205
:10050000A639B107E1F70E94AF050C94B1120C9423
:10051000000084E081BB82BB80E487BB80EA88BBAB
:1005200008951ABA8FEF8BBB8BE384BB8091BD001B
:10053000882311F08EEC01C08FEC85BB08958FEFFE
:100540008ABB1BBA8BEC84BB8091BD00882311F061
:100550008EEF01C08FEF85BB0895CF92DF92FF929F
:100560000F931F93CF93DF93F62E6C0190E0A5E3DA
:10057000B0E060E070E0E3E3F0E009E310E08C91CC
:1005800080628C939B0110C02F5F3F4F83EC21351D
:10059000380751F4EA019883E5E3F0E080818F7D2C
:1005A000808320E030E030C0808186FDEDCF8C91EB
:1005B0008F7D8C93E80188818095E60188839F5F19
:1005C0008C9180618C9310C02F5F3F4F83EC21355D
:1005D000380750F0EA019883E5E3F0E080818F7EF0
:1005E000808320E030E010C0808186FFEDCF8C91C9
:1005F0008F7E8C930894C11CD11C9F1508F4BFCF2B
:10060000FA0190832FEF30E0822F932FDF91CF916B
:100610001F910F91FF90DF90CF900895CF92DF92BE
:10062000EF92FF920F931F93CF93DF93E62E6C010F
:1006300090E0A5E3B0E060E070E0E3E3F0E009E320
:1006400010E08C9180628C939B0110C02F5F3F4F14
:1006500083EC2135380751F4EA019883E5E3F0E0B3
:1006600080818F7D808320E030E033C0808186FDF3
:10067000EDCFF0808C918F7D8C93E80188818095FF
:10068000E60188839F5F8C9180618C9310C02F5FFF
:100690003F4F83EC2135380750F0EA019883E5E3BA
:1006A000F0E080818F7E808320E030E012C0808186
:1006B00086FFEDCF8C918F7E8C939E1530F408943D
:1006C000C11CD11CFF200CF4BCCFFA0190832FEF8A
:1006D00030E0822F932FDF91CF911F910F91FF90E8
:1006E000EF90DF90CF900895CF92DF92EF92FF923C
:1006F0000F931F93CF93DF936C0190E0A5E3B0E0DD
:1007000000E010E0E3E3F0E00F2EF9E3EF2EFF242A
:10071000F02D8C9180628C93980110C02F5F3F4F19
:1007200083EC2135380751F4EA019883E5E3F0E0E2
:1007300080818F7D808320E030E033C0808186FD22
:10074000EDCF8C918F7D8C93E7018881782F709508
:10075000E60178839F5F8C9180618C9310C02F5F3E
:100760003F4F83EC2135380750F0EA019883E5E3E9
:10077000F0E080818F7E808320E030E012C08081B5
:1007800086FFEDCF8C918F7E8C93961730F4089472
:10079000C11CD11C7A3009F0BCCFFA0190832FEF35
:1007A00030E0822F932FDF91CF911F910F91FF9017
:1007B000EF90DF90CF9008958F929F92AF92BF926B
:1007C000CF92DF92EF92FF920F931F93CF93DF931D
:1007D0008C01942F662309F469C09D9B02C09C99EB
:1007E00065C020E030E0E62EFF24C5E3D0E00F2E08
:1007F000FBE38F2E9924F02D0F2EFCE2CF2EF1E09B
:10080000DF2EF02DAA24BB24A3E3B0E0A9014F5FA3
:100810005F4F4E155F0529F4992319F088818F7772
:100820008883F801E20FF31F80818095F4018083B3
:10083000F6013197F1F795010EC02F5F3F4FF3ECB2
:1008400021353F0741F4E5E3F0E080818068808353
:1008500020E030E02DC08C9185FFEFCF88818F7B29
:100860008883F6013197F1F711C02F5F3F4F83EC7A
:100870002135380758F0E5E3F0E080818068808317
:1008800080818064808320E030E012C08C9184FFFE
:10089000ECCF88818068888388818064888346174C
:1008A00018F02FEF30E004C09A01B0CF20E030E024
:1008B000822F932FDF91CF911F910F91FF90EF9097
:1008C000DF90CF90BF90AF909F908F9008951F9230
:1008D0000F920FB60F9211242F933F938F939F93F4
:1008E00080E882BF2091BA003091BB00211531050C
:1008F00019F18091C3008F5F8093C30021303105CF
:1009000019F025E030E002C029E130E090E08217E4
:10091000930794F01092C30090E08091C200882366
:1009200009F491E09093C200992319F482B3846092
:1009300002C082B38B7F82BB9F918F913F912F9199
:100940000F900FBE0F901F90189580538A3008F0BB
:10095000875008950F931F93082F0E94F80D1127B9
:1009600007FD1095802F912F1F910F910895EBE2B5
:10097000F0E080818823ECF70E94000E8B3511F0A7
:1009800080E00895EBE2F0E080818823ECF70E949C
:10099000000E08957F928F929F92AF92BF92CF9256
:1009A000DF92EF92FF920F931F93CF93DF936C012F
:1009B000E62E5A014901E80181E0888386010F5F34
:1009C0001F4FF801808190E00E942B0E8434910526
:1009D00049F4F601EE0DF11D319780818B3311F44E
:1009E000EA941882E0FC57C0F3E0FE1508F053C00B
:1009F000F6018081803309F04EC0F801808190E0DB
:100A00000E942B0E83549040029708F044C0F2E0FD
:100A1000FE1508F04FC0E60112E08A8190E00E94C6
:100A20002B0E9C01C901C0970A9728F0C901815477
:100A30009040069780F51F5F21961E1570F3F40114
:100A400010827724689471F88601070D111DF80152
:100A500081918F0190E00E942B0E0E94A504F82E38
:100A6000FF0CFF0CFF0CFF0CF501F082F8018081F8
:100A700090E00E942B0E0E94A504F80EF501F19261
:100A80005F01F40180818F5F8083F2E07F0E7E142E
:100A9000D8F281E001C080E0DF91CF911F910F91EA
:100AA000FF90EF90DF90CF90BF90AF909F908F908E
:100AB0007F900895F401108281E0EECFAF92BF9253
:100AC000CF92DF92EF92FF920F931F93DF93CF931A
:100AD000CDB7DEB7C054D0400FB6F894DEBF0FBE1E
:100AE000CDBF04E510E07E010894E11CF11C0F2E3F
:100AF000F0E6AF2EF0E0BF2EF02D0F2EF4EDCF2E4E
:100B0000F4E0DF2EF02DC701B80140E450E00E9470
:100B1000330E00D000D0EDB7FEB73196B182A0827F
:100B2000F382E2820E94B40E005C1F4F0F900F9080
:100B30000F900F900C151D0531F7C05CDF4F0FB6FD
:100B4000F894DEBF0FBECDBFCF91DF911F910F9103
:100B5000FF90EF90DF90CF90BF90AF9008952F92CD
:100B60003F924F925F926F927F928F929F92AF923D
:100B7000BF92CF92DF92EF92FF920F931F93DF937A
:100B8000CF9300D000D000D0CDB7DEB719821A8243
:100B900011E01B830E94890219BF80E882BF85E0B3
:100BA00083BF78940E949F020E94EC0D8AEA94E031
:100BB00060E070E00E94680EB5993BC081E090E073
:100BC0009093BB008093BA000E94910288EB9BE057
:100BD0000197F1F70F2EF4ECEF2EF0E0FF2EF02D41
:100BE0006E010894C11CD11CAA24BB240F2EF0E373
:100BF0008F2EF5E79F2EF02DC7016EE7A6010E940C
:100C0000AD028981882389F08823B1F38501F7013A
:100C1000E00FF11F80810E94F80D0F5F1F4F898147
:100C200090E0081719079CF3E7CFC4010197F1F78B
:100C3000E3CF86B38823881F8827881F8C83E2E34D
:100C4000F0E080818B7F80830F2EF8E42F2EF5E07B
:100C50003F2EF02DC1012D829E830F2EF4EC6F2EBE
:100C6000F0E07F2EF02D8091BE008093BF002C819C
:100C7000222359F000D023E630E0EDB7FEB73283EF
:100C800021830E94B40E0F900F90AA24BB240F2E34
:100C9000FBE28F2E9924F02DF40180818823E4F764
:100CA0000E94000EF82EF8E08F1709F05EC0AA200F
:100CB00099F3AB1481F4AA942C81222309F486C7FA
:100CC00088E00E94F80D80E20E94F80D88E00E9402
:100CD000F80DBA2CE1CFBB20F9F2AA94BA94EB2C10
:100CE000FF240A2D10E02701C7010196B101680F0A
:100CF000791FA8014E195F09C1018E0D9F1D0E9429
:100D00003C0E3C81332341F288E00E94F80DF10152
:100D1000E00FF11F108200D000D0EDB7FEB7319682
:100D20008BE690E091838083C1018E0D9F1D93839C
:100D300082830E94B40E68010894C11CD11C0F90DC
:100D40000F900F900F904C145D040CF0A5CF00E0B5
:100D500010E088E00E94F80D0F5F1F4FC8018E0D54
:100D60009F1D8C159D05ACF397CF9AE0891709F468
:100D700093CFEBE18E1709F0FFC00E94B7048234D5
:100D800009F459C0833424F4813409F068C107C0E0
:100D9000833409F4DFC0843409F061C1C9C0809193
:100DA000BF00811181508093BF00992787FD9095E6
:100DB0000024969587950794969587950794982F84
:100DC000802D64E471E0680F791F8D819E8140E47D
:100DD00050E00E943C0EFC81FF2331F1BA1430F444
:100DE00080E20E94F80DB394BA14D0F3AA2059F00F
:100DF00088E00E94F80D80E20E94F80D88E00E94D1
:100E0000F80DAA94A9F700D000D0EDB7FEB731963F
:100E100020E630E031832083338222820E94B40EA8
:100E20000F900F900F900F908D819E810E94570E12
:100E3000A82EB82E31CF5091BF00852F992787FD5E
:100E4000909501964091BE00242F332727FD3095C1
:100E500082179307F9F44093BF003C81332319F4C0
:100E6000AA24BB2419CFBA1430F480E20E94F80DF2
:100E7000B394BA14D0F3AA2009F4A6C688E00E945D
:100E8000F80D80E20E94F80D88E00E94F80DAA9407
:100E9000A9F79AC6821793070CF0FECE852F8F5FB5
:100EA0008093BF00992787FD90950024969587959C
:100EB0000794969587950794982F802D64E471E0A8
:100EC000680F791F8D819E8140E450E00E943C0EA6
:100ED0008C81882331F1BA1430F480E20E94F80D3D
:100EE000B394BA14D0F3AA2059F088E00E94F80D08
:100EF00080E20E94F80D88E00E94F80DAA94A9F7FC
:100F000000D000D0EDB7FEB7319620E630E0318357
:100F10002083338222820E94B40E0F900F900F9094
:100F20000F908D819E810E94570EA82EB82EB4CEB0
:100F3000BB2009F4B1CEBA943C81332309F4ACCE82
:100F40008BE10E94F80D8BE50E94F80D84E40E946D
:100F5000F80DA2CEBA1408F09FCEB3948C818823EA
:100F600009F49ACE8BE10E94F80D8BE50E94F80DF2
:100F700083E40E94F80D90CE9DE0891791F4EC81F6
:100F8000EE2331F08DE00E94F80D8AE00E94F80D0A
:100F9000AA2009F41DC6F101808190E00E942B0E69
:100FA0005FC0FEE3FA1508F477CEAB1469F4F101E3
:100FB000EA0DF11D8083A3942C81222309F406C637
:100FC0000E94F80DBA2C68CE8B2D90E09C012F5F0B
:100FD0003F4F8101080F191F4A2D50E0481B590B44
:100FE000C101820F931FB8010E943C0EF801F082EC
:100FF000B394A394CA2CDD24F101EC0DFD1D1082E5
:10100000FC81FF2309F448CE8F2D0E94F80DEB2CB4
:10101000FF2400D000D0EDB7FEB7319620E630E0D7
:1010200031832083C1018E0D9F1D938382830E9493
:10103000B40E0F900F900F900F90EC14FD040CF075
:101040002BCE00E010E088E00E94F80D0F5F1F4FEC
:10105000C8018E0D9F1D8C159D05ACF31DCE80E043
:10106000882309F419CE9A2D843409F067C0809141
:10107000C000882309F055C08091BC00813039F44C
:10108000F101EA0DF11D8DE08083A39418C0823038
:1010900039F4F101EA0DF11D8AE08083A3940FC0B9
:1010A000833069F4F101EA0DF11D8DE080839F5FCB
:1010B000F101E90FF11D8AE08083A92EA394EA2CA7
:1010C000EA9489E495E06E2D41E00E94DC038F3FB5
:1010D000910561F400D02FE630E0EDB7FEB7328322
:1010E00021830E94B40E0F900F900BC000D024E714
:1010F00030E0EDB7FEB7328321830E94B40E0F902B
:101100000F909091BC00892F8150823008F4EEC47A
:10111000933009F0EAC40F2EFEEFEF2EF02DEA0C0B
:10112000E5C400D02EE730E0EDB7FEB7328321836F
:101130000E94B40EEA2C0F900F90D8C4EA2C1F2DF9
:101140008D3409F068C08091C000882309F056C032
:101150008091BC00813039F4F101EA0DF11D8DE080
:101160008083A39419C0823039F4F101EA0DF11D96
:101170008AE08083A39410C0833071F4F101EA0DFA
:10118000F11D8DE080839A2D9F5FF101E90FF11D24
:101190008AE08083A92EA394EA2CEA9489E495E05E
:1011A0006E2D40E00E94DC038F3F910561F400D07A
:1011B0002FE630E0EDB7FEB7328321830E94B40EF4
:1011C0000F900F900BC000D024E730E0EDB7FEB7D2
:1011D000328321830E94B40E0F900F909091BC0037
:1011E000892F8150823008F481C4933009F07DC486
:1011F0000F2EFEEFEF2EF02DEA0C78C400D02EE774
:1012000030E0EDB7FEB7328321830E94B40EEA2CA2
:101210000F900F906BC4833409F0AEC0CE2CDD2448
:1012200032E0C316D1049CF1E9E4F5E0A2E3B0E0BA
:10123000FF24F39402E010E0B1016E0D711D808176
:101240008F3361F0482F50E08091B300282F30E0B9
:10125000C901805C9F4F4817590751F41092C00094
:101260001092BB001092BA008C918B7F8C930BC0B4
:10127000C90180964817590731F4F092C0001093C5
:10128000BB000093BA003196E617F707C1F68091CC
:10129000BC00813041F4F101EC0DFD1D8DE0808337
:1012A000AE2CA3941AC0823041F4F101EC0DFD1D67
:1012B0008AE08083AE2CA39410C0833071F4F101D6
:1012C000EC0DFD1D8DE080839E2D9F5FF101E90FE8
:1012D000F11D8AE08083A92EA3940E949F02E5E37A
:1012E000F0E080818D7F80838CE291E00197F1F7BF
:1012F000EA2CEA9489E495E06E2D41E00E94DC033B
:101300008F3F910561F400D02FE630E0EDB7FEB7D6
:10131000328321830E94B40E0F900F900BC000D037
:1013200024E730E0EDB7FEB7328321830E94B40E8C
:101330000F900F90E5E3F0E08081826080839091D0
:10134000BC00892F8150823048F0933011F0EA2C94
:1013500005C00F2EFEEFEF2EF02DEA0C8091C0009D
:10136000882319F00E94910202C00E949F0280917E
:10137000C0008093C100BAC38235A9F4E5E3F0E070
:1013800080818E7F808381E08093BD0000D02FE636
:1013900030E0EDB7FEB7328321830E94B40EEA2C11
:1013A0000F900F90A3C38C34A1F4E5E3F0E08081AB
:1013B000816080831092BD0000D02FE630E0EDB751
:1013C000FEB7328321830E94B40EEA2C0F900F9057
:1013D0008DC3893451F5E5E3F0E08081877F808318
:1013E00088EB9BE00197F1F7808188608083809192
:1013F000C000882369F01092C0001092BB001092C8
:10140000BA00E2E3F0E080818B7F80830E949F023C
:1014100000D02FE630E0EDB7FEB7328321830E9483
:10142000B40EEA2C0F900F9061C3833509F58091BB
:10143000BD00882311F480E301C081E30E94F80D10
:101440009A9B02C080E301C081E30E94F80D809165
:10145000C000882311F480E301C081E30E94F80DED
:101460008DE00E94F80D8AE00E94F80DEA2C3EC340
:10147000803509F055C01092C1001092C00081E083
:1014800090E09093BB008093BA000E94910288EB99
:101490009BE00197F1F71B31B1F10F2EFBE2CF2E4C
:1014A000DD24F02D4E010894811C911C0F2EF0E3D9
:1014B0004F2EF5E75F2EF02DF601808188231CF476
:1014C0000E94000EF82EC3016EE7A4010E94AD0237
:1014D0008981882391F0882399F000E010E0F301DE
:1014E000E00FF11F80810E94F80D0F5F1F4F89816F
:1014F00090E0081719079CF303C0C2010197F1F7A8
:10150000FBE1FF16C9F60E949F021092BB001092E9
:10151000BA00E2E3F0E080818B7F8083EA2CE6C2B0
:10152000883509F03EC08091C000882331F40E94C4
:10153000910288EB9BE00197F1F7C3016EE7AE01E2
:101540004F5F5F4F0E940E0389818823B1F0F30142
:10155000E80FF11D108200D000D0EDB7FEB7319634
:1015600020E630E031832083738262820E94B40ED1
:101570000F900F900F900F900BC000D024E730E039
:10158000EDB7FEB7328321830E94B40E0F900F9007
:101590008091C000882309F0A8C20E949F02EA2C13
:1015A000A5C2893579F58091C000882331F40E9465
:1015B000910288EB9BE00197F1F7C3016EE7AE0162
:1015C0004F5F5F4F0E940E0389810E94F80D898151
:1015D000882379F000E010E0F301E00FF11F808133
:1015E0000E94F80D0F5F1F4F898190E008171907BF
:1015F0009CF38091C000882309F077C20E949F026B
:10160000EA2C74C28A3509F05CC08091C00088233E
:1016100031F40E94910288EB9BE00197F1F7C3013E
:101620006EE7AE014F5F5F4F0E940E0300D000D007
:10163000EDB7FEB7319686E890E09183808389818B
:10164000828313820E94B40E89810F900F900F90B5
:101650000F90882311F100E010E000D000D0ADB76A
:10166000BEB71196E6E8F0E01196FC93EE93F30115
:10167000E00FF11F808112968C93129713961C92A3
:101680000E94B40E0F5F1F4F898190E00F900F9062
:101690000F900F900817190704F300D02BE830E0E3
:1016A000EDB7FEB7328321830E94B40E0F900F90E6
:1016B0008091C000882309F018C20E949F02EA2C82
:1016C00015C28F3321F40E945E05EA2C0FC28534C7
:1016D00009F048C031E0E31699F400D000D0EDB72E
:1016E000FEB731968EE890E0918380839C8192834F
:1016F00013820E94B40E0F900F900F900F90F9C1BB
:10170000E2E0EE1611F5E9E4F5E08081803369F45A
:1017100000D02FE630E0EDB7FEB7328321830E9480
:10172000B40E1C820F900F90E4C1813371F400D08D
:101730002FE630E0EDB7FEB7328321830E94B40E6E
:1017400031E03C830F900F90D4C100D02EE730E001
:10175000EDB7FEB7328321830E94B40EEA2C0F90BE
:101760000F90C4C18834A9F58091BE0018160CF002
:1017700028C20F2EF4E4EF2EF1E0FF2EF02D00E052
:1017800010E000D000D000D0EDB7FEB7319683E96D
:1017900090E09183808313830283F582E4820E9428
:1017A000B40E0F5F1F4FE0E4F0E0EE0EFF1E8091DD
:1017B000BE00992787FD90952DB73EB72A5F3F4F12
:1017C0000FB6F8943EBF0FBE2DBF08171907CCF215
:1017D000F8C1813409F058C031E0E316A1F400D01B
:1017E00000D0EDB7FEB731968CE990E0918380830D
:1017F0008091B300828313820E94B40E0F900F90E9
:101800000F900F9076C193E0E91689F5E9E4F5E0D1
:10181000808190E00E94250E892B49F1EAE4F5E0F1
:10182000808190E00E94250E892B09F189E495E0E2
:101830000E94070E8F31910570F48093B30000D0A1
:101840002FE630E0EDB7FEB7328321830E94B40E5D
:101850000F900F904EC100D02EE730E0EDB7FEB7ED
:10186000328321830E94B40E0F900F9042C100D0AA
:101870002EE730E0EDB7FEB7328321830E94B40E2D
:10188000EA2C0F900F9032C1813509F050C031E041
:10189000E316A1F400D000D0EDB7FEB731968EE884
:1018A00090E0918380838091BC00828313820E94A8
:1018B000B40E0F900F900F900F901BC192E0E9169D
:1018C00049F5E9E4F5E09081892F8053843010F5E3
:1018D000903319F41092BC0011C0913321F481E0CF
:1018E0008093BC000BC0923321F482E08093BC0053
:1018F00005C0933319F483E08093BC0000D02FE639
:1019000030E0EDB7FEB7328321830E94B40E0F9012
:101910000F90EFC000D02EE730E0EDB7FEB7328376
:1019200021830E94B40EEA2C0F900F90DFC0843503
:1019300009F0CCC06E2D615089E495E044E055E09B
:101940009E012E5F3F4F8E010D5F1F4F0E94CA0404
:10195000882309F4AEC0EAE4F5E0808190E00E94BB
:101960002B0E8434910521F08A81882321F562C0F1
:1019700084E095E06A814B810E94DC038F3F9105F2
:1019800069F400D02FE630E0EDB7FEB73283218353
:101990000E94B40EEA2C0F900F90A8C000D024E74C
:1019A00030E0EDB7FEB7328321830E94B40EEA2CFB
:1019B0000F900F909BC040E050E002E310E0FF2446
:1019C000F394CC24DD246894C1F8E4E0F5E0E40F5E
:1019D000F51F20812F3359F08091B300682F70E0FC
:1019E00030E0CB01805C9F4F2817390759F41092E3
:1019F000C0001092BB001092BA00F80180818B7F6A
:101A0000808311C0F101E40FF51F808190E09B01FC
:101A1000205E3F4F8217930731F4F092C000D092BE
:101A2000BB00C092BA004F5F5F4F8A8190E04817B9
:101A300059075CF20E949F02E5E3F0E080818D7F10
:101A400080838CE291E00197F1F784E095E06A8170
:101A500041E00E94DC038F3F910561F400D02FE646
:101A600030E0EDB7FEB7328321830E94B40E0F90B1
:101A70000F900BC000D024E730E0EDB7FEB7328303
:101A800021830E94B40E0F900F90E5E3F0E0808177
:101A9000826080838091C000882319F00E949102A7
:101AA00002C00E949F028091C0008093C100EA2C76
:101AB0001DC000D02EE730E0EDB7FEB732832183A2
:101AC0000E94B40EEA2C0F900F9010C0EE2009F483
:101AD00078C000D023EA30E0EDB7FEB7328321832F
:101AE0000E94B40E0F900F906CC0EA2CEE2009F407
:101AF00068C0F101EE0DF11D10821091BE001116AB
:101B0000BCF4812F992787FD909501970024969525
:101B100087950794969587950794982F802D8C5BD1
:101B20009E4F6D817E810E944E0E892B09F449C023
:101B30001F30DCF4812F992787FD9095002496951E
:101B400087950794969587950794982F802D8C5BA1
:101B50009E4F6D817E8140E450E00E943C0E80915A
:101B6000BE008F5F8093BE002CC0412F552747FDDC
:101B700050954150504000245695479507945695EE
:101B800047950794542F402D84E491E064E871E078
:101B90000E943C0E8091BE00992787FD9095019789
:101BA0000024969587950794969587950794982F86
:101BB000802D8C5B9E4F6D817E8140E450E00E94C1
:101BC0003C0EF10110824FC8BB2466C8BA2C64C811
:101BD000EA2C1F2D81E01FCBE0E4F0E010828CE0C6
:101BE00089B982E08BB988E18AB986E88083089553
:101BF000982FEBE2F0E0808185FFFDCF9CB908953E
:101C0000EBE2F0E080818823ECF78CB10895FC01D1
:101C100088279927E89421912032E9F3293010F0A0
:101C20002E30C8F32B3241F02D3239F4689404C0C1
:101C30000E94600E820F911D219120532A30C0F323
:101C40001EF4909581959F4F08959111A0C38053E4
:101C50008A50E0F708959111089581568A5108F449
:101C6000805285580895FB01DC0102C005900D9259
:101C700041505040D8F708956817790768F4FB0180
:101C8000DC01E40FF51FA40FB51F02C002900E92F5
:101C900041505040D8F708950C94D511FB01DC0158
:101CA0008D91019080190110D9F3990B0895FC01D1
:101CB00001900020E9F7809590958E0F9F1F089561
:101CC0007AE0979F902D879F802D910D1124089584
:101CD0000F931F93CF93DF938C01EB01009731F4A7
:101CE0006115710519F420E030E038C081E090E022
:101CF0006EE070E00E94A610FC019C01009771F15B
:101D000080E88383209771F0D387C28781E883833B
:101D100080918C0590918D05892B21F4F0938D0590
:101D2000E0938C0501151105C9F0118700878381A7
:101D30008260838380918E0590918F05892B71F449
:101D4000F0938F05E0938E05809190059091910519
:101D5000892B21F4F0939105E0939005C901DF915F
:101D6000CF911F910F910895A0E0B0E0EAEBFEE063
:101D70000C948A12FE0135966191719180918E05C5
:101D800090918F05AF010E94C90E2096E2E00C945D
:101D9000A612ABE0B0E0EFECFEE00C947A123C014E
:101DA0002B015A01FC0117821682838181FD03C039
:101DB0006FEF7FEFC6C19AE0892E1E010894211CA7
:101DC000311CF3012381F20123FD859123FF8191D1
:101DD0002F01882309F4B2C1853239F423FD85919E
:101DE00023FF81912F01853229F490E0B3010E94F5
:101DF000F011E7CF982FFF24EE249924FFE1FF157F
:101E0000D0F09B3269F09C3228F4903259F0933232
:101E100091F40EC09D3249F0903369F441E024C042
:101E200052E0F52A84E0F82A28C098E0F92A25C073
:101E3000E0E1FE2A22C0F7FC29C0892F80538A30B6
:101E400070F4F6FE05C0989C902C1124980E15C0D5
:101E5000E89CE02C1124E80EF0E2FF2A0EC09E322E
:101E600029F4F6FC6BC140E4F42A07C09C3619F44F
:101E700050E8F52A02C0983649F4F20123FD959105
:101E800023FF91912F01992309F0B8CF892F855411
:101E9000833018F08052833038F444E050E0A40ED0
:101EA000B51E5FE359830FC0933631F0933779F055
:101EB000933509F056C020C0F5018081898342E046
:101EC00050E0A40EB51E610101E010E012C0F50162
:101ED000C080D180F6FC03C06FEF7FEF02C0692D98
:101EE00070E042E050E0A40EB51EC6010E94E5116C
:101EF0008C015FE7F52214C0F501C080D180F6FCAB
:101F000003C06FEF7FEF02C0692D70E042E050E048
:101F1000A40EB51EC6010E94CA118C0150E8F52A14
:101F2000F3FE07C01AC080E290E0B3010E94F011F6
:101F3000EA948E2D90E008171907A8F30EC0F60159
:101F4000F7FC8591F7FE81916F0190E0B3010E944B
:101F5000F011E110EA94015010400115110579F7D4
:101F6000EAC0943611F0993669F5F7FE08C0F5011C
:101F7000208131814281538184E090E00AC0F501E3
:101F8000808191819C01442737FD4095542F82E048
:101F900090E0A80EB91E9FE6F92257FF09C05095A0
:101FA0004095309521953F4F4F4F5F4FE0E8FE2A17
:101FB000CA01B901A1012AE030E00E941C12D82E0A
:101FC000D21840C0953729F41F2D1F7E2AE030E03B
:101FD0001DC01F2D197F9F3661F0903720F4983572
:101FE00009F0ACC00FC0903739F0983709F0A6C09F
:101FF00004C028E030E00AC0106114FD146020E144
:1020000030E004C014FD166020E132E017FF08C084
:10201000F501608171818281938144E050E008C0C4
:10202000F50180819181BC0180E090E042E050E0C8
:10203000A40EB51EA1010E941C12D82ED2188FE743
:10204000F82EF122F6FE0BC05EEFF522D91438F41B
:10205000F4FE07C0F2FC05C08FEEF82202C01D2D71
:1020600001C0192DF4FE0DC0FE01ED0DF11D8081A2
:10207000803319F499EEF92208C01F5FF2FE05C003
:1020800003C08F2D867809F01F5F0F2DF3FC14C05D
:10209000F0FE0FC01E1510F09D2C0BC09D2C9E0C49
:1020A000911A1E2D06C080E290E0B3010E94F0114B
:1020B0001F5F1E15C0F304C01E1510F4E11A01C005
:1020C000EE2404FF0FC080E390E0B3010E94F01102
:1020D00002FF1DC001FD03C088E790E00EC088E547
:1020E00090E00BC0802F867891F001FF02C08BE258
:1020F00001C080E2F7FC8DE290E0B3010E94F01194
:1021000006C080E390E0B3010E94F0119A94D914C4
:10211000C0F3DA94F101ED0DF11D808190E0B3017F
:102120000E94F011DD20A9F706C080E290E0B30123
:102130000E94F011EA94EE20C1F743CEF3016681CC
:102140007781CB012B96E2E10C9496120F931F93AB
:10215000CF93DF93689F8001699F100D789F100DCA
:102160001124C8010E94C210EC01009729F060E020
:1021700070E0A8010E94DE11CE01DF91CF911F9186
:102180000F910895CF93DF93BC018230910510F435
:1021900062E070E0A0919405B0919505ED01E0E05A
:1021A000F0E040E050E021C08881998186179707D0
:1021B00069F48A819B81309719F09383828304C0EC
:1021C0009093950580939405FE0134C068177907B4
:1021D00038F44115510519F08417950708F4AC013E
:1021E000FE018A819B819C01E9012097E9F6411556
:1021F0005105A9F1CA01861B970B049708F4BA018F
:10220000E0E0F0E02AC08D919C911197841795072A
:10221000F9F46417750781F412968D919C911397C8
:10222000309719F09383828304C09093950580932F
:102230009405FD0132964FC0CA01861B970BFD0124
:10224000E80FF91F6193719302978D939C9343C09C
:10225000FD01828193819C01D9011097A1F68091A3
:10226000920590919305892B41F48091B60090914D
:10227000B70090939305809392054091B8005091D8
:10228000B9004115510541F44DB75EB78091B400D6
:102290009091B500481B590B209192053091930500
:1022A00024173507B0F4CA01821B930B86179707D2
:1022B00080F0AB014E5F5F4F8417950750F0420FDF
:1022C000531F5093930540939205F90161937193C5
:1022D00002C0E0E0F0E0CF01DF91CF910895CF930D
:1022E000DF93009709F450C0EC0122971B821A82F9
:1022F000A0919405B0919505109709F140E050E048
:10230000AC17BD0708F1BB83AA83FE01219131916F
:10231000E20FF31FAE17BF0779F48D919C911197CF
:10232000280F391F2E5F3F4F3983288312968D91D6
:102330009C9113979B838A834115510571F4D09327
:102340009505C093940520C012968D919C9113978A
:10235000AD01009711F0DC01D3CFFA01D383C28322
:1023600021913191E20FF31FCE17DF0769F48881C5
:102370009981280F391F2E5F3F4FFA013183208347
:102380008A819B8193838283DF91CF9108959927DE
:1023900088270895FC010590615070400110D8F71E
:1023A000809590958E0F9F1F0895FB01DC0102C060
:1023B00001900D9241505040D8F70895DC0101C0C2
:1023C0006D9341505040E0F70895FC01615070401A
:1023D00001900110D8F7809590958E0F9F1F08955A
:1023E0000F931F93CF93DF938C01EB018B8181FFC0
:1023F0001BC082FF0DC02E813F818C819D812817DB
:10240000390764F4E881F9810193F983E88306C010
:10241000E885F985802F0995892B31F48E819F817C
:1024200001969F838E8302C00FEF1FEFC801DF91DB
:10243000CF911F910F910895FA01AA27283051F1E9
:10244000203181F1E8946F936E7F6E5F7F4F8F4FE5
:102450009F4FAF4FB1E03ED0B4E03CD0670F781F44
:10246000891F9A1FA11D680F791F8A1F911DA11D29
:102470006A0F711D811D911DA11D20D009F4689462
:102480003F912AE0269F11243019305D3193DEF60A
:10249000CF010895462F4770405D4193B3E00FD0C0
:1024A000C9F7F6CF462F4F70405D4A3318F0495DAB
:1024B00031FD4052419302D0A9F7EACFB4E0A6958E
:1024C0009795879577956795BA95C9F700976105B0
:1024D000710508959B01AC010A2E06945795479506
:1024E00037952795BA95C9F7620F731F841F951FFB
:1024F000A01D08952F923F924F925F926F927F920C
:102500008F929F92AF92BF92CF92DF92EF92FF9203
:102510000F931F93CF93DF93CDB7DEB7CA1BDB0BAF
:102520000FB6F894DEBF0FBECDBF09942A88398854
:1025300048885F846E847D848C849B84AA84B9845B
:10254000C884DF80EE80FD800C811B81AA81B98167
:10255000CE0FD11D0FB6F894DEBF0FBECDBFED017B
:062560000895F894FFCF7E
:102566002573003C475049423E2000257320004F0A
:102576004B0D0A0054494D454F55540D0A0045521E
:10258600524F520D0A0025303278000D0A0025649C
:102596000D0A0025643A2025730D0A0025303264A1
:1025A6000D0A0057524F4E4720434F4D4D414E4462
:0A25B6000D0A001520009605000034
:00000001FF
